:200000000C9473000C949B000C949B000C949B000C949B000C949B000C949B000C949B0030
:200020000C949B000C949B000C949B000C948B090C949B000C949B000C949B000C949B00EF
:200040000C949B000C9441090C949B000C94940A0C94010B0C949B000C949B000C949B00A5
:200060000C94440B0C949B000C949B000C949B0000010004010502020301040004050504B7
:200080000302010006070602030203070506070607000103030203020304020201010102F9
:2000A00002000000000000000003010103030301010102020404390036003300300025002A
:2000C000FFFFFF04FF0102FFFF030500FFFFFFFFFFFFFFFFFFFFFFFFFFFFFFFFFFFFFFFF2B
:2000E000FFFFFF00500811241FBECFEFD4E0DEBFCDBF11E0A0E0B1E0ECEFF6E102C00590F3
:200100000D92A831B107D9F723E0A8E1B1E001C01D92A738B207E1F710E0C6EED0E004C0CA
:200120002297FE010E94780BC43ED107C9F70E9455080C947C0B0C940000CF93DF9300D0DE
:200140001F92CDB7DEB790E0FC01E059FF4F2491FC01ED56FF4F84918F3F69F190E0FC01F4
:20016000EE0FFF1FEA54FF4FA591B491BB83AA83611112C081E090E0FC0102C0EE0FFF1F03
:200180002A95E2F7E09511968C91E823E983CE0101960E948A080FC081E090E0FC0102C01E
:2001A000EE0FFF1F2A95E2F78981E82BE983CE0101960E9480080F900F900F90DF91CF91C6
:2001C00008958230A9F028F4882349F0813081F508C08430C1F098F0853051F51FC013BEB0
:2001E00008958FB58F778FBD8EB589608EBD08958FB58F7D8FBD8EB589608EBD089587B5CC
:20020000837087BD0895EBE8F0E080818F778083EAE8F0E08081896080830895EBE8F0E08E
:2002200080818F7D8083EAE8F0E08081896080830895CF93DF93282F30E0F901E054FF4FCB
:200240008491F901E059FF4FD491F901ED56FF4FC4918F3F11F00E94E100CF3F79F02C2F9F
:2002600030E0F901EE0FFF1FEA54FF4F259134916D2F822F932F0E94940801C080E0DF9174
:20028000CF910895309A389A8FEF93E20197F1F700C00000389808951F93CF93DF93C62FAA
:2002A000282F30E0F901E054FF4F8491F901E059FF4FD491F901ED56FF4F14918F3F11F061
:2002C0000E94E100E12FF0E0EE0FFF1FEA54FF4F259134914D2F622F732F8C2F0E94A008E5
:2002E000DF91CF911F9108951F93CF93DF93182FEB0161E00E949D001C161D062CF060E0F7
:20030000812F0E944C0114C0CF3FD1052CF061E0812F0E944C010CC0E12FF0E0E054FF4F5C
:20032000D4918D2F0E94CF086D2F8C2F0E940909DF91CF911F910895FF920F931F93CF93B4
:20034000DF93F62E082F000F000F000F802F8250823150F460FF0AC0802F0E94190111E0A6
:20036000811105C010E003C010E001C010E0C02FD0E09E01215031092231310540F4F1FE3D
:2003800006C0802F8F5F0E94190181111260023140F4F2FE06C0802F8E5F0E941901811133
:2003A00014609E012F5F3F4F2231310540F4F3FE06C0802F8D5F0E941901811118609E019A
:2003C0002E5F3F4F2231310540F4F4FE06C0802F8C5F0E941901811110619E012D5F3F4F7B
:2003E0002231310540F4F5FE06C0802F8B5F0E941901811110629E012C5F3F4F22313105ED
:2004000040F4F6FE06C0802F8A5F0E941901811110642596629740F4FF2034F4802F895FCE
:200420000E94190181111068812FDF91CF911F910F91FF9008951F93CF93DF93162FC42F3C
:20044000D82FDD0FDD0FDD0F811102C0CC7F07C0823011F4CF7703C0833009F4CE7FC0FFEF
:2004600005C0612F61708D2F0E944C01C1FF06C0612F62708D2F8F5F0E944C01C2FF06C0A3
:20048000612F64708D2F8E5F0E944C01C3FF06C0612F68708D2F8D5F0E944C01C4FF06C050
:2004A000612F60718D2F8C5F0E944C01C5FF06C0612F60728D2F8B5F0E944C01C6FF06C039
:2004C000612F60748D2F8A5F0E944C01CC2334F4612F60788D2F895F0E944C01DF91CF9142
:2004E0001F910895CF9361E086E10E949D00C9E161E08C2F0E949D00CF5FC332C9F7CF913E
:2005000008950E94860A08950E94F20A0895FC01E751FF4F9081911103C0862F0E945D0A7D
:2005200008950F931F93CF93DF93EC018B016F7777270E948702B801660F672F661F770B03
:200540006F777727CE010E948702DF91CF911F910F91089560EF0E948702089567EF0E9451
:2005600087020895F89428E088E190E00FB6F894A89581BD0FBE21BDFFCF62E270E081E0AE
:200580000E942A0A08950E94840208950F931F93CF93DF93EC018A016F7060690E948702B0
:2005A000B8016F777727CE010E948702B801660F672F661F770BCE010E948702DF91CF916F
:2005C0001F910F910895DF92EF92FF920F931F93CF93DF938C01C62FF42ED22EE32E0E942C
:2005E000AA026C2FC8010E948702FF2091F0CD2DDE2DFA94CE018F0D911D7C019FEFE91A66
:20060000F90A699170E0C8010E949102CE15DF05C1F7C8010E94AE02DF91CF911F910F91D5
:20062000FF90EF90DF9008956F927F928F929F92AF92BF92CF92DF92EF92FF920F931F9372
:20064000CF93DF93CDB7DEB7ADB6BEB60E9481026C01009751F18DB69EB68DB79EB78C1996
:200660009D090FB6F8949EBF0FBE8DBF0196682E792E082F192F7801EC0CFD1C0E94610A23
:20068000F80181938F01EE15FF05C1F7262D372D4C2D66E688E191E00E94E302882D992DA6
:2006A0000FB6F8949EBF0FBE8DBF0FB6F894BEBE0FBEADBEDF91CF911F910F91FF90EF9040
:2006C000DF90CF90BF90AF909F908F907F906F900895242F352FE42FF52FDF010D9000203A
:2006E000E9F71197AD014E1B5F0B0E94E3020895CF93DF93EC0160EF0E94870261E6CE017C
:200700000E94870267EFCE010E948702DF91CF910895CF93DF93EC0169EF0E94870260E06D
:20072000CE010E94870261E0CE010E948702DF91CF910895FF920F931F93CF93DF938C01D1
:20074000C62FD0E0FC01EC0FFD1FF2A0F422211106C0FC01EC0FFD1F81858F1549F04F2DCD
:2007600050E088E191E00E94C602C00FD11FF986DF91CF911F910F91FF900895CF93DF93A7
:20078000EC018C81882351F06AA180E00E949C0120E0482F60E0CE010E949A038D8188234B
:2007A00051F06BA181E00E949C0120E0482F61E0CE010E949A038E81882351F06CA182E01C
:2007C0000E949C0120E0482F62E0CE010E949A038F81882351F06DA183E00E949C0120E067
:2007E000482F63E0CE010E949A038885882351F06EA184E00E949C0120E0482F64E0CE01FC
:200800000E949A03DF91CF910895FF920F931F93CF93DF93EC01F62E62506231B0F5411522
:200820005105E9F48F2D869586958695FE01E80FF11D2F2D277081E090E002C0880F991F9F
:200840002A95E2F792A1892B82A30F2D10E0F801EE0FFF1FEC0FFD1F10A617A22AC08F2D88
:20086000869586958695FE01E80FF11D2F2D277081E090E0DC0102C0AA0FBB1F2A95E2F795
:200880009D01209582A1282322A30F2D10E0F801EE0FFF1FEC0FFD1F10A617A24130510545
:2008A000A1F04330510501F1452BF1F5623108F042C060E08F2D0E949D0060E08F2D0E9430
:2008C0004C01C00FD11F1E8636C06231A0F560E08F2D0E944C0161E08F2D0E949D00C00F54
:2008E000D11F81E08E8727C0B3E0FB1679F085E0F81661F0A6E0FA1649F0B9E0FB1631F040
:200900008AE0F81619F0ABE0FA1215C061E08F2D0E949D0060E070E08F2D0E947401C00F7C
:20092000D11F83E08E8707C046E051E061E788E191E00E946903DF91CF911F910F91FF9052
:200940000895FF920F931F93CF93DF938C01F62EEA0183E18617F8F083E0681779F085E00C
:20096000681761F086E0681749F089E0681731F08AE0681719F08BE0681304C0BE018F2D69
:200980000E9474018F2D90E0880F991FF801E80FF91FD0A7C7A3DF91CF911F910F91FF902D
:2009A0000895FF920F931F93CF93DF93062F642F0530C8F5102F110F110F110F185F1531CB
:2009C00008F014E1502F550F550F550F511730F5F12C71E0A1E0B0E0C0E0D0E0252F22505D
:2009E0002231B8F4252F30E0FC01E20FF31FE685E23078F4F72AF901EE0FFF1FE80FF91F66
:200A0000472F46233A2F2B2F11F43C2F2D2F37A320A7770F5F5F5113E1CF01C0F12C4F2D15
:200A2000802F0E941B02DF91CF911F910F91FF900895653020F4FC01E60FF11D44830895EF
:200A40006F927F928F929F92AF92BF92CF92DF92EF92FF920F931F93CF93DF93CDB7DEB77B
:200A60008C01CDB6DEB6663609F434C190F4623609F485C138F4603609F48BC1613609F04A
:200A8000A5C19AC1643609F46AC1653609F09EC1CAC06B3669F120F4673609F097C17BC11D
:200AA0006D3609F46BC06F3609F090C1423008F48DC1F901818190E0433038F06281F0E8FE
:200AC0006F9FB0011124862B972B443050F0F9016381562F5295550F550F507C40E0842B4E
:200AE000952BAC01F9016081C8010E94A1046EC160EF0E9487026CE6C8010E948702F12C92
:200B000015C08F2D8150823180F460E0C8010E94870261E0C8010E94870261E0C8010E9437
:200B2000870261E0C8010E948702FE2CF3E0FF1679F025E0F21661F056E0F51649F069E05B
:200B4000F61631F07AE0F71619F08BE0F81208C063E0C8010E94870268E0C8010E94870248
:200B60006FE7C8010E948702EF2CE39494E1E912C8CF67EFC8010E94870228C1442309F4FB
:200B800025C1F901E08060EF0E9487026EE6C8010E9487026E2DC8010E948702F3E1FE15DD
:200BA000E8F1F12CF801EE0DFF1D6685C8010E9487025701AA0CBB1CA00EB11EF50167A1F0
:200BC00070A56F777727C8010E948702F50187A190A59C012078232B51F0BC01660F672FA9
:200BE000661F770B6F777727C8010E948702F701EE0FFF1FE00FF11F87A190A59C01222721
:200C0000307C232B59F0BC01770F660B770F762F661F6F777727C8010E94870267EFC80196
:200C20000E948702D3C0F9018081813009F04DC08181811106C080EB94E0F80191838083FB
:200C40003DC0833031F48FEC90E0F8019183808335C0843031F48AE890E0F8019183808304
:200C60002DC0853031F487E690E0F8019183808325C0863031F484E490E0F8019183808318
:200C80001DC0873031F483E390E0F8019183808315C0883031F482E290E0F801918380831F
:200CA0000DC0893031F480E190E0F8019183808305C080E091EEF80191838083F80160811A
:200CC000718180E00E942A0A81C081117FC00E944F0A7CC06DB67EB6842F86956DB77EB725
:200CE000681B71090FB6F8947EBF0FBE6DBF8DB69EB681E090E0880E991EA42EB12C1A14DE
:200D00001B042CF579019FEFE91AF90A00E010E0F7018081F0E88F9FC0011124F701319700
:200D20009081892B9801112314F42F5F3F4FF901F595E795E80DF91D80830E94590A0E5F7D
:200D40001F4F22E0E20EF11C0A151B050CF3862D972D0FB6F8949EBF0FBE8DBF37C0F901B9
:200D60008081811105C0F801E751FF4F10822EC0813061F5F801E751FF4F808327C080EF3D
:200D80000E945D0A82E60E945D0A87EF0E945D0A1DC00E94B202F9018081F8018383F90133
:200DA0008181811104C081E0F80182830FC0843069F4F80112820AC0F901808181110E9416
:200DC0004201F801EB5EFE4F81E080830FB6F894DEBE0FBECDBEDF91CF911F910F91FF90E9
:200DE000EF90DF90CF90BF90AF909F908F907F906F9008959C012D503F4FFC01ED5EFE4FE2
:200E000040814150FC01EE50FF4F60810E94200508951F93CF93DF93EC01FC01B29685E095
:200E2000DF015E971C921192DF015A971C928150B9F710E040E050E0612FCE010E94050442
:200E40001F5F1431B9F7DF91CF911F910895FC01E151FF4F1082FC01E051FF4F1082FC01E8
:200E6000EF50FF4F1082FC01E751FF4F1082FC01EE50FF4F20E011922F5F2032E1F7FC015D
:200E8000EE5EFE4F1082FC01ED5EFE4F11821082FC01EB5EFE4F10820E9409070895CF9397
:200EA000DF93EC010E94CA0AFE01EE5EFE4F20812223D1F0873F910541F4FE01EE5EFE4FF5
:200EC0001082CE010E94FA06CEC0FE01ED5EFE4F20813181C20FD31FCE50DF4F88832F5FEF
:200EE0003F4F31832083BFC0FE01E151FF4F2081222309F46FC0803891050CF06BC0215017
:200F0000FE01E151FF4F2083FE01E20FF11DEE50FF4F80832111A7C0FE01E051FF4F80810A
:200F2000882309F4A0C0803D09F444C020F4803909F04CC01CC0803E21F0843F09F046C0AC
:200F40002CC0FE01EE50FF4F8081FE01ED50FF4F408150E090E8899F400D511D1124FE010F
:200F6000EF50FF4F6081CE010E94A1042FC0FE01EE50FF4F8081FE01ED50FF4F408150E0F7
:200F800090E8899F400D511D1124FE01EF50FF4F6081CE010E94D10419C0FE01EE50FF4FAA
:200FA0004081FE01ED50FF4F50E06081CE010E9405040CC0FE01EE50FF4F4081FE01EF5005
:200FC000FF4F50E06081CE010E941905C051DF4F188249C0803F910554F49C01207F33270E
:200FE000FE01EF50FF4F8F709927808301C09C01203F310539F154F4203D3105C9F0203E94
:20100000310569F02039310571F509C0293F310519F12F3F310521F1243F310521F5FE0177
:20102000E151FF4F82E08083C051DF4F28831BC0FE01E151FF4F81E08083C051DF4F80ED77
:20104000888311C0FE01EE5EFE4F81E08083CD5EDE4F1982188207C0CE010E94890303C0A4
:20106000CE010E942707DF91CF910895FC01E451FF4F1082FC01E351FF4F11821082FC01B1
:201080001282EB51FF4F11821082FC01E851FF4F1082FC01E751FF4F10820E942707089575
:2010A00088E191E00E9436080895789488E191E00E94BD0288E191E00E9409070E947202F0
:2010C00088E191E00E947803D69AD79ADE9ADF9A87B5836087BD88E191E00E94140388E1E8
:2010E00091E00E94BE0304C088E191E00E944F0788E191E00E94C3021816190664F7F4CFDA
:20110000DC011196ED91FC91129721818C91822B81830895DC011196ED91FC9112972181B0
:201120008C91822381830895FC0181E090E09C0102C0220F331F6A95E2F780818223089581
:20114000E62FF72F882319F08130E1F40EC081E090E09C0102C0220F331F4A95E2F7A90137
:201160004095828148234283089581E090E09C0102C0220F331F4A95E2F7A9018281482B3F
:201180004283089581E090E09C0102C0220F331F4A95E2F7A9018281482B4283089582304E
:2011A000B9F028F4882349F0813091F50AC08430D1F0A8F0853061F521C083B78B6683BF1F
:2011C00008958FB581688FBD8EB58B608EBD08958FB581628FBD8EB58B608EBD089587B51E
:2011E0008B6687BD0895EBE8F0E0808181688083EAE8F0E080818B6080830895EBE8F0E0BC
:20120000808181628083EAE8F0E080818B6080830895623091F028F4662349F06130F1F452
:2012200008C0643081F068F06530C1F412C081BF089590E09BBD8ABD089590E099BD88BDD9
:20124000089582BD089590E09093870080938600089590E09093850080938400089589B739
:20126000846089BF089581E090E090933B0280933A02089581E090E090933902809338020C
:2012800008951F920F920FB60F9211242F933F938F939F93AF93BF9380912E0290912F02B5
:2012A000A0913002B091310230913C02232F255E2D3720F40296A11DB11D05C0232F225658
:2012C0000396A11DB11D20933C0280932E0290932F02A0933002B093310280913202909120
:2012E0003302A0913402B09135020196A11DB11D8093320290933302A0933402B093350235
:20130000BF91AF919F918F913F912F910F900FBE0F901F9018951F920F920FB60F92112409
:201320002F933F934F935F936F937F938F939F93AF93BF9340913602509137029A013695C0
:20134000279536952795ABE7B4E10E946A0B9695879564E6689F9001699F300D1124421710
:201360005307B9F580913A0290913B02892B31F080913A0290913B020797A8F180913802B8
:2013800090913902892B31F080913802909139020797B8F180913A0290913B02069708F4EA
:2013A00043C080913802909139020697B8F53CC010923B0210923A02DE9A0BC080913802F2
:2013C00090913902069728F01092390210923802DF9A809136029091370201969093370234
:2013E0008093360228C09BB380E489278BBB80913A0290913B02019690933B0280933A0221
:20140000BDCF8BB380588BBB809138029091390201969093390280933802BCCF89B78B7F26
:2014200089BFDE9ADF9AD5CF80913A0290913B02069720F2BDCFBF91AF919F918F917F91F9
:201440006F915F914F913F912F910F900FBE0F901F9018951092400210923F0210923E021C
:2014600010923D0210928502109284021092830210928202882319F0813081F408C01BB878
:2014800088E98AB986E880BD83E089B9089512B888ED81B986E88CBF83E080B908958111AE
:2014A00004C08AB187708AB9089581B1877081B908955D9BFECF8CB90895159BFECF83B9F6
:2014C00008952091840230918502809182029091830228173907A9F0809182029091830262
:2014E000019699279093830280938202FC01E957FD4F808190918602392F20E0280F311D36
:2015000002C02FEF3FEF822F932F089520918402309185028091820290918302281B390B6C
:201520003327822F932F08951F920F920FB60F9211242F933F934F935F938F939F93EF9316
:20154000FF934BB15CB14871809184029091850201969927209182023091830282179307F3
:2015600049F09093850280938402FC01E957FD4F508301C04FEF40938602FF91EF919F91F9
:201580008F915F914F913F912F910F900FBE0F901F90189520913F023091400280913D021F
:2015A00090913E0228173907C1F080913D0290913E0201968F73992790933E0280933D02DB
:2015C000FC01EE5BFD4F208130914102932F80E0AC01420F511D9A0102C02FEF3FEF822FEC
:2015E000932F089520913F023091400280913D0290913E02281B390B2F733327822F932FF0
:2016000008951F920F920FB60F9211242F933F934F935F936F937F938F939F93AF93BF93DC
:20162000EF93FF9342B153B1487180913F029091400201968F73992720913D0230913E02E7
:201640008217930749F09093400280933F02FC01EE5BFD4F508301C04FEF409341020E9449
:201660002F090E943309FF91EF91BF91AF919F918F917F916F915F914F913F912F910F9055
:201680000FBE0F901F9018951F920F920FB60F9211242F933F934F935F936F937F938F93F7
:2016A0009F93AF93BF93EF93FF930E942F090E943A09FF91EF91BF91AF919F918F917F9191
:2016C0006F915F914F913F912F910F900FBE0F901F901895A29FB001B39FC001A39F01D02B
:2016E000B29F700D811D1124911D0895EE0FFF1F0590F491E02D0994F894FFCF000087033B
:201700002000556E6B6E6F776E2070696E206D6F64650000FFFFFFFFFFFFFFFFFFFFFFFF99
:203800000C94381C0C94551C0C94551C0C94551C0C94551C0C94551C0C94551C0C94551C3D
:203820000C94551C0C94551C0C94551C0C94551C0C94551C0C94551C0C94551C0C94551C00
:203840000C94551C0C94551C0C94551C0C94551C0C94551C0C94551C0C94551C0C94551CE0
:203860000C94551C0C94551C0C94551C0C94551C11241FBECFEFD4E0DEBFCDBF11E0A0E0E6
:20388000B1E0E8EFFBE302C005900D92A830B107D9F721E0A8E0B1E001C01D92A039B20770
:2038A000E1F70E94CB1C0C94FA1D0C94001CCF93DF9360910C0170910D0143E0FB01409361
:2038C0005700E89507B600FCFDCF10928F01C0E0D1E0EC2FF0E0DC01AE0FBF1F4C91119625
:2038E0003C9120E0D901A40FB11D0D01D0935700E8951124CE5FC0938F01C03851F785E071
:20390000FB0180935700E89507B600FCFDCFDF91CF9108951EBC81E180935700E895E0E0EF
:20392000F0E00995089583B9169BFECF169A089510BC23E029B996E890BD88E18AB932E03B
:203940003BB91CBE20B99CBF81B90895179BFECF83B10895E82FF92FCF0180589F4F20E069
:2039600030E0B8E0719160E026273727AB2FA901440F551F332324F421E2422720E1522713
:20398000A1509A01A1F7E817F90761F750938E0140930A010895BF92CF92DF92EF92FF928A
:2039A0000F931F93CF93DF9387B3806E87BBF89414BE88E10FB6F89481BD11BC0FBE80EA1B
:2039C00095E09BBD8ABD1FBC8DE08EBD0E94981C10920A0185E10E94931CC1E008B606FE23
:2039E0000BC088B7806488BF80910A018830B9F0C15011F40E948A1C179BF0CF23B1809161
:203A00000A01E82FF0E0E050FF4F9081291304C08F5F80930A01E2CF10920A01DFCFCAEF54
:203A200008B606FE0AC088B7806488BF83E40E94931CC15011F40E948A1C179BF1CF1EBC2E
:203A40001092080110920D0110920C01F12C10E0D12C0F2EF1E1BF2EF02DCC24C394AAC088
:203A6000EF2CE3940E94A61C80930B010E94A61C8095809309010D2DC0910801D0E00E94B5
:203A8000A61CC25FDE4F8883809108018F5F809308010F5F003881F70E94A61CD82F0E94BC
:203AA000A61CC82F90910B01E9127CC080910901E81278C020910801822F90E082579F4FFA
:203AC0000E94AA1C80918E01D81365C080910A01C81361C080910C0190910D01811528E3C8
:203AE0009207A8F4209108012223DCF48EE091E00E94571C80910C0190910D0180589F4FBB
:203B000090930D0180930C01D092080102C0D092080180910C0190910D01811528E3920735
:203B2000B0F5B0925700E895C0920A014D2D80589109242F30E0FC01E20FF31FE491D901CF
:203B4000A25FBE4F2C91E21729F040938F01D0920A010CC04F5F6AF740938F0180910A015E
:203B6000882321F086E00E94931C33C085E10E94931C1F5FD092080180910C0190910D01F2
:203B80008058910990930D0180930C0111C086E00E94931C1EC0D092080185E10E94931CDA
:203BA0001F5F06C0D09208011F5F85E10E94931C143028F40E94A61C843009F051CF11116E
:203BC00004C086E00E94931C07C088E10E94931C03C0FE2C1D2DEECF0E948A1C80E090E0DD
:203BE000DF91CF911F910F91FF90EF90DF90CF90BF900895F894FFCF640E1C39142857AA7F
:00000001FF
